:100000000C9462000C948A000C948A000C948A0070
:100010000C948A000C948A000C948A000C948A0038
:100020000C948A000C948A000C948A000C948A0028
:100030000C948A000C948A000C948A000C948A0018
:100040000C9402050C948A000C9472050C944C05D7
:100050000C948A000C948A000C948A000C948A00F8
:100060000C948A000C948A000000000024002700F1
:100070002A0000000000250028002B0000000000DE
:1000800023002600290004040404040404040202DA
:100090000202020203030303030301020408102007
:1000A0004080010204081020010204081020000012
:1000B0000008000201000003040700000000000027
:1000C0000000A40511241FBECFEFD8E0DEBFCDBFD6
:1000D00011E0A0E0B1E0EAEBF3E102C005900D927F
:1000E000AA34B107D9F721E0AAE4B1E001C01D921A
:1000F000A63FB207E1F710E0C2E6D0E004C02197C6
:10010000FE010E94D509C136D107C9F70E94DB055F
:100110000C94DB090C940000833081F028F48130CA
:1001200099F08230A9F008958730A9F08830C9F09D
:100130008430B1F4809180008F7D03C08091800075
:100140008F7780938000089584B58F7784BD08955C
:1001500084B58F7DFBCF8091B0008F778093B00006
:1001600008958091B0008F7DF9CFCF93DF93282F32
:1001700030E0F901E255FF4F8491F901E656FF4F57
:10018000D491F901EA57FF4FC491CC23A1F081111A
:100190000E948C00EC2FF0E0EE0FFF1FE458FF4FA1
:1001A000A591B491EC91ED2381E090E009F480E019
:1001B000DF91CF91089580E090E0FACF1F93CF9325
:1001C000DF93282F30E0F901E255FF4F8491F901C8
:1001D000E656FF4FD491F901EA57FF4FC491CC2363
:1001E000A9F0162F81110E948C00EC2FF0E0EE0F89
:1001F000FF1FEE58FF4FA591B4918FB7F894EC9183
:10020000111108C0D095DE23DC938FBFDF91CF9111
:100210001F910895DE2BF8CFCF93DF9390E0FC0180
:10022000E656FF4F24918A579F4FFC018491882303
:10023000D1F090E0880F991FFC01E859FF4FA5917C
:10024000B491FC01EE58FF4FC591D49161110EC0DD
:100250009FB7F8948C91E22FE0958E238C932881A0
:10026000E223E8839FBFDF91CF9108958FB7F89481
:10027000EC91E22BEC938FBFF6CFCF93DF93D82F87
:10028000C62F61E00E940C0161E08C2F0E940C01DE
:1002900061E08D2F0E94DE0061E08C2F0E94DE0065
:1002A00060E08C2FDF91CF910C94DE003FB7F89483
:1002B00080914F0190915001A0915101B091520154
:1002C00026B5A89B05C02F3F19F00196A11DB11DB1
:1002D0003FBFBA2FA92F982F8827BC01CD01620FED
:1002E000711D811D911D42E0660F771F881F991FA8
:1002F0004A95D1F708958F929F92AF92BF92CF9275
:10030000DF92EF92FF924B015C010E9456016B015C
:100310007C010E9456016C197D098E099F09683E77
:10032000734081059105A8F321E0821A9108A10884
:10033000B10888EEC80E83E0D81EE11CF11C8114C0
:100340009104A104B10429F7FF90EF90DF90CF90C2
:10035000BF90AF909F908F900895EF92FF920F9370
:100360001F93CF93DF93E82EF62E08E010E0D0E045
:10037000C0E061E08F2D0E94DE006AE070E080E066
:1003800090E00E947B01CC0FDD1F8E2D0E94B500F6
:10039000C80FD91F60E08F2D0E94DE0001501109A7
:1003A00041F7CE01DF91CF911F910F91FF90EF9018
:1003B0000895EF92FF920F931F93CF93DF93C82F6F
:1003C000F92ED62FE72E60E00E940C0161E08D2F00
:1003D0000E940C016D2F7E2D8C2F9F2D0E94AD0150
:1003E00000E0182F61E08C2F0E940C0161E08C2F3F
:1003F0000E94DE0060E08C2F0E94DE0061E08D2F05
:100400000E94DE0060E08D2F0E94DE0060E08C2FF5
:100410000E940C016D2F7E2D8C2F9F2D0E94AD010F
:10042000802B912BDF91CF911F910F91FF90EF9037
:1004300008951F93CF93DF93182F60E00E940C0163
:10044000C4E6D0E06AE070E080E090E00E947B01CA
:10045000812F0E94B500892B11F0219799F7DF9128
:10046000CF911F910895AF92BF92CF92DF92EF92FA
:10047000FF920F931F93CF93DF936C017B018B014E
:10048000040F151FEB015E01AE18BF08C017D1079E
:1004900059F06991D601ED91FC910190F081E02D28
:1004A000C6010995892B79F7C501DF91CF911F917D
:1004B0000F91FF90EF90DF90CF90BF90AF90089595
:1004C000FC01538D448D252F30E0842F90E0821B5A
:1004D000930B541710F0CF96089501970895FC01DF
:1004E000918D828D981761F0A28DAE0FBF2FB11D37
:1004F0005D968C91928D9F5F9F73928F90E008958F
:100500008FEF9FEF0895FC01918D828D981731F048
:10051000828DE80FF11D858D90E008958FEF9FEF9C
:100520000895FC01918D228D892F90E0805C9F4F72
:10053000821B91098F739927089583E591E00E94AA
:10054000910221E0892B09F420E0822F089580E0B8
:1005500090E0892B29F00E949D0281110C940000EB
:100560000895FC01A48DA80FB92FB11DA35ABF4F48
:100570002C91848D90E001968F739927848FA689A2
:10058000B7892C93A089B1898C91837080648C93F6
:10059000938D848D981306C00288F389E02D8081A5
:1005A0008F7D80830895EF92FF920F931F93CF93D7
:1005B000DF93EC0181E0888F9B8D8C8D98131AC09E
:1005C000E889F989808185FF15C09FB7F894EE8985
:1005D000FF896083E889F9898081837080648083E2
:1005E0009FBF81E090E0DF91CF911F910F91FF902D
:1005F000EF900895F62E0B8D10E00F5F1F4F0F73D5
:100600001127E02E8C8D8E110CC00FB607FCFACF8F
:10061000E889F989808185FFF5CFCE010E94B1027A
:10062000F1CFEB8DEC0FFD2FF11DE35AFF4FF08260
:100630009FB7F8940B8FEA89FB8980818062CFCFC6
:10064000CF93DF93EC01888D8823B9F0AA89BB8909
:10065000E889F9898C9185FD03C0808186FD0DC0F4
:100660000FB607FCF7CF8C9185FFF2CF808185FF15
:10067000EDCFCE010E94B102E9CFDF91CF91089575
:10068000FC0101900020E9F73197AF01481B590B9D
:10069000BC0183E591E00C9433028F929F92AF925C
:1006A000BF920F931F93CF93DF93CDB7DEB7A19780
:1006B0000FB6F894DEBF0FBECDBF19A2423008F4CA
:1006C0004AE08E010F5D1F4F842E912CB12CA12C7E
:1006D000A50194010E94B309E62FB901CA01EA30CD
:1006E000F4F4E05DD801EE938D01232B242B252B10
:1006F00079F790E080E0109719F0CD010E94400357
:10070000A1960FB6F894DEBF0FBECDBFDF91CF919B
:100710001F910F91BF90AF909F908F900895E95CCB
:10072000E1CFCF93DF930E944003EC0182E191E09F
:100730000E9440038C0F9D1FDF91CF9108954F922F
:100740005F926F927F928F929F92AF92BF92CF9261
:10075000DF92EF92FF920F931F93CF936B017C0177
:10076000742EAC019B010E94AE09882399F085E1AB
:1007700091E0CF911F910F91FF90EF90DF90CF907C
:10078000BF90AF909F908F907F906F905F904F90B1
:100790000C94400346015701E894B7F82FEF3FEF60
:1007A0004FE75FE7C501B4010E94AE0981110DC09A
:1007B0002FEF3FEF4FE75FE7C501B4010E94DD0770
:1007C00018161CF489E191E0D4CF2FEF3FEF4FE7EB
:1007D0005FE4C701B6010E943C0918161CF48DE1C4
:1007E00091E0C7CF2FEF3FEF4FE75FECC701B601B6
:1007F0000E94DD0787FDF3CF20E030E0A901C701AB
:10080000B6010E94DD0710E000E087FF0AC06DE23C
:1008100083E591E00E94D3028C01F7FAF094F7F897
:10082000F094C0E060E070E080E09FE37C1641F06F
:1008300020E030E040E251E40E94E207CF5FF6CFD3
:10084000A70196010E9471072B013C010E945B08E1
:100850004B015C014AE00E944D037C01E00EF11E59
:10086000CC23C1F1C501B4010E948A089B01AC01EF
:10087000C301B2010E9470074B015C016EE283E587
:1008800091E00E94D302E80EF91EC15018F120E059
:1008900030E040E251E4C501B4010E9441092B015E
:1008A0003C010E945B084B01B12CA12C4AE0C50120
:1008B000B4010E944D03E80EF91EC501B4010E9467
:1008C0008A089B01AC01C301B2010E9470074B0171
:1008D0005C01DBCFC701CF911F910F91FF90EF908B
:1008E000DF90CF90BF90AF909F908F907F906F9050
:1008F0005F904F900895EF92FF920F931F93CF93C5
:10090000DF937C01D62FC42F61E08D2F0E940C0154
:1009100061E08C2F0E940C0161E08D2F0E94DE00AF
:1009200061E08C2F0E94DE0060E08D2F0E94DE00CF
:1009300060E08C2F0E94DE0061E08C2F0E94DE00C0
:1009400061E08D2F0E94DE0060E08C2F0E94DE00AF
:1009500007E010E0B701002E02C0759567950A9474
:10096000E2F761708D2F0E94DE0061E08C2F0E9403
:10097000DE0060E08C2F0E94DE000150110950F76C
:1009800061E08C2F0E94DE0060E08D2F0E940C0140
:100990008D2F0E94B50060E08C2F0E94DE008D2F0D
:1009A000DF91CF911F910F91FF90EF900C94B500C4
:1009B0000F931F93CF93DF93C0EFD1E04A815B8108
:1009C0006881798183E090E00E947B04888199812D
:1009D0000E9419026A817B81888199810E94D901D4
:1009E0008C016A817B81888199810E943D01B801D7
:1009F000110F880B990B0E948C08DF91CF911F91EA
:100A00000F9108951F920F920FB60F9211242F93FA
:100A10003F938F939F93AF93BF9380914B0190919E
:100A20004C01A0914D01B0914E0130914A0123E05B
:100A3000230F2D3758F50196A11DB11D20934A01B2
:100A400080934B0190934C01A0934D01B0934E01C4
:100A500080914F0190915001A0915101B0915201AC
:100A60000196A11DB11D80934F0190935001A09359
:100A70005101B0935201BF91AF919F918F913F91DE
:100A80002F910F900FBE0F901F90189526E8230FFF
:100A90000296A11DB11DD2CF1F920F920FB60F92D9
:100AA00011242F933F934F935F936F937F938F9373
:100AB0009F93AF93BF93EF93FF9383E591E00E94E1
:100AC000B102FF91EF91BF91AF919F918F917F9173
:100AD0006F915F914F913F912F910F900FBE0F90AB
:100AE0001F9018951F920F920FB60F9211242F93FB
:100AF0008F939F93EF93FF93E0916301F0916401D3
:100B00008081E0916901F0916A0182FD1BC09081B2
:100B100080916C018F5F8F7320916D01821741F07E
:100B2000E0916C01F0E0ED5AFE4F958F80936C01DF
:100B3000FF91EF919F918F912F910F900FBE0F908A
:100B40001F9018958081F4CFE3E5F1E013821282C3
:100B500088EE93E0A0E0B0E084839583A683B7831A
:100B600084E091E09183808385EC90E09587848791
:100B700084EC90E09787868780EC90E0918B808B67
:100B800081EC90E0938B828B82EC90E0958B848B50
:100B900086EC90E0978B868B118E128E138E148EBE
:100BA000E0EFF1E08AE090E0918380838BE090E0D9
:100BB000938382830895CF93DF9300D000D0CDB785
:100BC000DEB7789484B5826084BD84B5816084BDCD
:100BD00085B5826085BD85B5816085BD80916E00DB
:100BE000816080936E00109281008091810082600C
:100BF0008093810080918100816080938100809149
:100C000080008160809380008091B1008460809337
:100C1000B1008091B00081608093B00080917A0033
:100C2000846080937A0080917A00826080937A0059
:100C300080917A00816080937A0080917A00806848
:100C400080937A001092C10061E083E00E940C0161
:100C500061E085E00E940C0161E086E00E940C01E9
:100C600061E08DE00E940C01E0916301F09164016C
:100C700082E08083E0915F01F09160011082E09159
:100C80006101F09162018FEC808310926B01E09121
:100C90006701F091680186E08083E0916501F09141
:100CA0006601808180618083E0916501F091660139
:100CB000808188608083E0916501F0916601808188
:100CC00080688083E0916501F091660180818F7D6D
:100CD000808381E291E00E9491030E94D8044B013D
:100CE0005C014091F2015091F3016091F00170912B
:100CF000F10185E090E00E947B048091F0019091E9
:100D0000F1010E9419026091F2017091F30180914A
:100D1000F0019091F1010E94D9017C016091F201F2
:100D20007091F3018091F0019091F1010E943D01D9
:100D3000B701FF0C880B990B0E948C086B017C019A
:100D400024E533EE45E25DE30E94410920E030E016
:100D500040E850E40E9470072B013C0122EA37EE84
:100D60004BE356EBC701B6010E944109A70196016A
:100D70000E9441099B01AC01C301B2010E947107AD
:100D800069837A838B839C830E94D8040E945408D1
:100D9000072E000C880B990B0E948C082AE037ED77
:100DA00043E25CE30E94410920E030E040E252E48B
:100DB0000E94700720E030E048EC51E40E94700788
:100DC0002B013C012CEA35EC47EA58E3C701B60198
:100DD0000E9441092AE037ED43E25CE30E9471077B
:100DE0009B01AC01C301B2010E94410929813A81F2
:100DF0004B815C810E9471076B017C0161E083E0A3
:100E00000E940C0160E083E00E94DE0061E085E06A
:100E10000E940C0160E085E00E94DE0061E086E057
:100E20000E940C0161E086E00E94DE008EE291E00B
:100E30000E944003C501B4010E945408072E000C13
:100E4000880B990B0E948C082CEB34E743E95CE398
:100E50000E94410920E030E040E252E40E94700725
:100E60004AE00E949F038BE391E00E9491038DE38F
:100E700091E00E94400342E0C701B6010E949F0337
:100E800088E491E00E94910368EE73E080E090E0D6
:100E90000E947B0120E030E040EA51E4C701B60146
:100EA0000E94DD0718165CF420E030E048EC52E4C4
:100EB000C701B6010E94DD0760E0811101C061E059
:100EC0008DE00E94DE0080E090E0892B09F405CFE0
:100ED0000E949D02882309F400CF0E940000FDCEED
:100EE0005058BB27AA270E9488070C9402090E9429
:100EF000F40838F00E94FB0820F039F49F3F19F401
:100F000026F40C94F1080EF4E095E7FB0C94EB0842
:100F1000E92F0E94130958F3BA1762077307840771
:100F2000950720F079F4A6F50C9435090EF4E095B8
:100F30000B2EBA2FA02D0B01B90190010C01CA0193
:100F4000A0011124FF27591B99F0593F50F4503E3E
:100F500068F11A16F040A22F232F342F4427585F30
:100F6000F3CF469537952795A795F0405395C9F748
:100F70007EF41F16BA0B620B730B840BBAF0915000
:100F8000A1F0FF0FBB1F661F771F881FC2F70EC09F
:100F9000BA0F621F731F841F48F487957795679572
:100FA000B795F7959E3F08F0B0CF9395880F08F05E
:100FB0009927EE0F9795879508950E94C70808F422
:100FC00081E008950E94F6070C9402090E94FB0834
:100FD00058F00E94F40840F029F45F3F29F00C9487
:100FE000EB0851110C9436090C94F1080E94130976
:100FF00068F39923B1F3552391F3951B550BBB2748
:10100000AA2762177307840738F09F5F5F4F220F8C
:10101000331F441FAA1FA9F335D00E2E3AF0E0E883
:1010200032D091505040E695001CCAF72BD0FE2FCD
:1010300029D0660F771F881FBB1F26173707480761
:10104000AB07B0E809F0BB0B802DBF01FF27935819
:101050005F4F3AF09E3F510578F00C94EB080C94EA
:1010600036095F3FE4F3983ED4F38695779567950C
:10107000B795F7959F5FC9F7880F911D969587954E
:1010800097F90895E1E0660F771F881FBB1F62176D
:1010900073078407BA0720F0621B730B840BBA0B2B
:1010A000EE1F88F7E09508950E945B086894B111DF
:1010B0000C94360908950E941B0988F09F5798F0F8
:1010C000B92F9927B751B0F0E1F0660F771F881F4D
:1010D000991F1AF0BA95C9F714C0B13091F00E9467
:1010E0003509B1E008950C943509672F782F8827CA
:1010F000B85F39F0B93FCCF3869577956795B3958E
:10110000D9F73EF490958095709561957F4F8F4FFC
:101110009F4F0895E89409C097FB3EF49095809501
:10112000709561957F4F8F4F9F4F9923A9F0F92FAD
:1011300096E9BB279395F695879577956795B7952B
:10114000F111F8CFFAF4BB0F11F460FF1BC06F5F11
:101150007F4F8F4F9F4F16C0882311F096E911C023
:10116000772321F09EE8872F762F05C0662371F044
:1011700096E8862F70E060E02AF09A95660F771F58
:10118000881FDAF7880F9695879597F90895990F34
:101190000008550FAA0BE0E8FEEF16161706E80741
:1011A000F907C0F012161306E407F50798F0621B62
:1011B000730B840B950B39F40A2661F0232B242B37
:1011C000252B21F408950A2609F4A140A6958FEF56
:1011D000811D811D089597F99F6780E870E060E0A8
:1011E00008959FEF80EC089500240A9416161706C0
:1011F00018060906089500240A9412161306140608
:1012000005060895092E0394000C11F4882352F06A
:10121000BB0F40F4BF2B11F460FF04C06F5F7F4F22
:101220008F4F9F4F089557FD9058440F551F59F009
:101230005F3F71F04795880F97FB991F61F09F3FC3
:1012400079F087950895121613061406551FF2CFEC
:101250004695F1DF08C0161617061806991FF1CF3C
:1012600086957105610508940895E894BB27662763
:101270007727CB0197F908950E94C70808F48FEFEC
:1012800008950E9454090C9402090E94F40838F051
:101290000E94FB0820F0952311F00C94EB080C94AD
:1012A000F10811240C9436090E94130970F3959FDC
:1012B000C1F3950F50E0551F629FF001729FBB274D
:1012C000F00DB11D639FAA27F00DB11DAA1F649FE9
:1012D0006627B00DA11D661F829F2227B00DA11D9C
:1012E000621F739FB00DA11D621F839FA00D611D22
:1012F000221F749F3327A00D611D231F849F600D43
:10130000211D822F762F6A2F11249F5750409AF06B
:10131000F1F088234AF0EE0FFF1FBB1F661F771FF7
:10132000881F91505040A9F79E3F510580F00C94C2
:10133000EB080C9436095F3FE4F3983ED4F38695AE
:1013400077956795B795F795E7959F5FC1F7FE2B62
:10135000880F911D9695879597F908950E94C70863
:10136000880B990B0895A1E21A2EAA1BBB1BFD0145
:101370000DC0AA1FBB1FEE1FFF1FA217B307E40774
:10138000F50720F0A21BB30BE40BF50B661F771FCC
:10139000881F991F1A9469F76095709580959095AC
:1013A0009B01AC01BD01CF010895EE0FFF1F059019
:0A13B000F491E02D0994F894FFCFAA
:1013BA0000000000D30233026002200391026F0290
:1013CA0083020D0A006E616E00696E66006F7666B2
:1013DA0000496E697469616C697A696E670054655F
:1013EA006D657261747572653A2000460048756DC4
:0A13FA0069646974793A2000250047
:00000001FF
